{
  "_format": "hh-sol-artifact-1",
  "contractName": "ClinicPayment",
  "sourceName": "contracts/ClinicPayment.sol",
  "abi": [
    {
      "anonymous": false,
      "inputs": [
        {
          "indexed": true,
          "internalType": "uint256",
          "name": "paymentId",
          "type": "uint256"
        }
      ],
      "name": "PaymentCancelled",
      "type": "event"
    },
    {
      "anonymous": false,
      "inputs": [
        {
          "indexed": true,
          "internalType": "uint256",
          "name": "paymentId",
          "type": "uint256"
        },
        {
          "indexed": true,
          "internalType": "address",
          "name": "patient",
          "type": "address"
        },
        {
          "indexed": false,
          "internalType": "uint256",
          "name": "amount",
          "type": "uint256"
        },
        {
          "indexed": false,
          "internalType": "uint256",
          "name": "timestamp",
          "type": "uint256"
        }
      ],
      "name": "PaymentCompleted",
      "type": "event"
    },
    {
      "anonymous": false,
      "inputs": [
        {
          "indexed": true,
          "internalType": "uint256",
          "name": "paymentId",
          "type": "uint256"
        },
        {
          "indexed": true,
          "internalType": "address",
          "name": "clinic",
          "type": "address"
        },
        {
          "indexed": true,
          "internalType": "address",
          "name": "patient",
          "type": "address"
        },
        {
          "indexed": false,
          "internalType": "uint256",
          "name": "amount",
          "type": "uint256"
        },
        {
          "indexed": false,
          "internalType": "string",
          "name": "description",
          "type": "string"
        }
      ],
      "name": "PaymentCreated",
      "type": "event"
    },
    {
      "inputs": [
        {
          "internalType": "uint256",
          "name": "_paymentId",
          "type": "uint256"
        }
      ],
      "name": "cancelPayment",
      "outputs": [],
      "stateMutability": "nonpayable",
      "type": "function"
    },
    {
      "inputs": [
        {
          "internalType": "address",
          "name": "",
          "type": "address"
        },
        {
          "internalType": "uint256",
          "name": "",
          "type": "uint256"
        }
      ],
      "name": "clinicPayments",
      "outputs": [
        {
          "internalType": "uint256",
          "name": "",
          "type": "uint256"
        }
      ],
      "stateMutability": "view",
      "type": "function"
    },
    {
      "inputs": [
        {
          "internalType": "address",
          "name": "_patient",
          "type": "address"
        },
        {
          "internalType": "uint256",
          "name": "_amount",
          "type": "uint256"
        },
        {
          "internalType": "string",
          "name": "_description",
          "type": "string"
        }
      ],
      "name": "createPayment",
      "outputs": [
        {
          "internalType": "uint256",
          "name": "",
          "type": "uint256"
        }
      ],
      "stateMutability": "nonpayable",
      "type": "function"
    },
    {
      "inputs": [
        {
          "internalType": "address",
          "name": "_clinic",
          "type": "address"
        }
      ],
      "name": "getClinicPayments",
      "outputs": [
        {
          "internalType": "uint256[]",
          "name": "",
          "type": "uint256[]"
        }
      ],
      "stateMutability": "view",
      "type": "function"
    },
    {
      "inputs": [
        {
          "internalType": "address",
          "name": "_patient",
          "type": "address"
        }
      ],
      "name": "getPatientPayments",
      "outputs": [
        {
          "internalType": "uint256[]",
          "name": "",
          "type": "uint256[]"
        }
      ],
      "stateMutability": "view",
      "type": "function"
    },
    {
      "inputs": [
        {
          "internalType": "uint256",
          "name": "_paymentId",
          "type": "uint256"
        }
      ],
      "name": "getPayment",
      "outputs": [
        {
          "components": [
            {
              "internalType": "uint256",
              "name": "id",
              "type": "uint256"
            },
            {
              "internalType": "address payable",
              "name": "clinic",
              "type": "address"
            },
            {
              "internalType": "address",
              "name": "patient",
              "type": "address"
            },
            {
              "internalType": "uint256",
              "name": "amount",
              "type": "uint256"
            },
            {
              "internalType": "string",
              "name": "description",
              "type": "string"
            },
            {
              "internalType": "enum ClinicPayment.PaymentStatus",
              "name": "status",
              "type": "uint8"
            },
            {
              "internalType": "uint256",
              "name": "createdAt",
              "type": "uint256"
            },
            {
              "internalType": "uint256",
              "name": "completedAt",
              "type": "uint256"
            }
          ],
          "internalType": "struct ClinicPayment.Payment",
          "name": "",
          "type": "tuple"
        }
      ],
      "stateMutability": "view",
      "type": "function"
    },
    {
      "inputs": [
        {
          "internalType": "address",
          "name": "_patient",
          "type": "address"
        }
      ],
      "name": "getPendingPayments",
      "outputs": [
        {
          "components": [
            {
              "internalType": "uint256",
              "name": "id",
              "type": "uint256"
            },
            {
              "internalType": "address payable",
              "name": "clinic",
              "type": "address"
            },
            {
              "internalType": "address",
              "name": "patient",
              "type": "address"
            },
            {
              "internalType": "uint256",
              "name": "amount",
              "type": "uint256"
            },
            {
              "internalType": "string",
              "name": "description",
              "type": "string"
            },
            {
              "internalType": "enum ClinicPayment.PaymentStatus",
              "name": "status",
              "type": "uint8"
            },
            {
              "internalType": "uint256",
              "name": "createdAt",
              "type": "uint256"
            },
            {
              "internalType": "uint256",
              "name": "completedAt",
              "type": "uint256"
            }
          ],
          "internalType": "struct ClinicPayment.Payment[]",
          "name": "",
          "type": "tuple[]"
        }
      ],
      "stateMutability": "view",
      "type": "function"
    },
    {
      "inputs": [],
      "name": "getTotalPayments",
      "outputs": [
        {
          "internalType": "uint256",
          "name": "",
          "type": "uint256"
        }
      ],
      "stateMutability": "view",
      "type": "function"
    },
    {
      "inputs": [
        {
          "internalType": "address",
          "name": "",
          "type": "address"
        },
        {
          "internalType": "uint256",
          "name": "",
          "type": "uint256"
        }
      ],
      "name": "patientPayments",
      "outputs": [
        {
          "internalType": "uint256",
          "name": "",
          "type": "uint256"
        }
      ],
      "stateMutability": "view",
      "type": "function"
    },
    {
      "inputs": [
        {
          "internalType": "uint256",
          "name": "_paymentId",
          "type": "uint256"
        }
      ],
      "name": "pay",
      "outputs": [],
      "stateMutability": "payable",
      "type": "function"
    },
    {
      "inputs": [
        {
          "internalType": "uint256",
          "name": "",
          "type": "uint256"
        }
      ],
      "name": "payments",
      "outputs": [
        {
          "internalType": "uint256",
          "name": "id",
          "type": "uint256"
        },
        {
          "internalType": "address payable",
          "name": "clinic",
          "type": "address"
        },
        {
          "internalType": "address",
          "name": "patient",
          "type": "address"
        },
        {
          "internalType": "uint256",
          "name": "amount",
          "type": "uint256"
        },
        {
          "internalType": "string",
          "name": "description",
          "type": "string"
        },
        {
          "internalType": "enum ClinicPayment.PaymentStatus",
          "name": "status",
          "type": "uint8"
        },
        {
          "internalType": "uint256",
          "name": "createdAt",
          "type": "uint256"
        },
        {
          "internalType": "uint256",
          "name": "completedAt",
          "type": "uint256"
        }
      ],
      "stateMutability": "view",
      "type": "function"
    }
  ],
  "bytecode": "0x608060405234801561001057600080fd5b506123ef806100206000396000f3fe60806040526004361061009c5760003560e01c80638422927d116100645780638422927d146101c057806387d81789146101e9578063981016831461022d578063a3876d001461026a578063c290d691146102a7578063fdfa9b2c146102c35761009c565b80630f721961146100a157806317560f29146100de5780633280a8361461011b57806340a2e60a14610158578063708f29a614610195575b600080fd5b3480156100ad57600080fd5b506100c860048036038101906100c39190611507565b610300565b6040516100d59190611556565b60405180910390f35b3480156100ea57600080fd5b50610105600480360381019061010091906116b7565b610331565b6040516101129190611556565b60405180910390f35b34801561012757600080fd5b50610142600480360381019061013d9190611726565b61063c565b60405161014f9190611938565b60405180910390f35b34801561016457600080fd5b5061017f600480360381019061017a919061195a565b610866565b60405161018c9190611af9565b60405180910390f35b3480156101a157600080fd5b506101aa610c7c565b6040516101b79190611556565b60405180910390f35b3480156101cc57600080fd5b506101e760048036038101906101e29190611726565b610c85565b005b3480156101f557600080fd5b50610210600480360381019061020b9190611726565b610e81565b604051610224989796959493929190611b92565b60405180910390f35b34801561023957600080fd5b50610254600480360381019061024f919061195a565b610f9e565b6040516102619190611cc6565b60405180910390f35b34801561027657600080fd5b50610291600480360381019061028c9190611507565b611035565b60405161029e9190611556565b60405180910390f35b6102c160048036038101906102bc9190611726565b611066565b005b3480156102cf57600080fd5b506102ea60048036038101906102e5919061195a565b611345565b6040516102f79190611cc6565b60405180910390f35b6003602052816000526040600020818154811061031c57600080fd5b90600052602060002001600091509150505481565b60008073ffffffffffffffffffffffffffffffffffffffff168473ffffffffffffffffffffffffffffffffffffffff16036103a1576040517f08c379a000000000000000000000000000000000000000000000000000000000815260040161039890611d34565b60405180910390fd5b600083116103e4576040517f08c379a00000000000000000000000000000000000000000000000000000000081526004016103db90611da0565b60405180910390fd5b6000808154809291906103f690611def565b91905055506000600160008054815260200190815260200160002090506000548160000181905550338160010160006101000a81548173ffffffffffffffffffffffffffffffffffffffff021916908373ffffffffffffffffffffffffffffffffffffffff160217905550848160020160006101000a81548173ffffffffffffffffffffffffffffffffffffffff021916908373ffffffffffffffffffffffffffffffffffffffff160217905550838160030181905550828160040190816104be9190612043565b5060008160050160006101000a81548160ff021916908360028111156104e7576104e6611811565b5b0217905550428160060181905550600260003373ffffffffffffffffffffffffffffffffffffffff1673ffffffffffffffffffffffffffffffffffffffff1681526020019081526020016000206000549080600181540180825580915050600190039060005260206000200160009091909190915055600360008673ffffffffffffffffffffffffffffffffffffffff1673ffffffffffffffffffffffffffffffffffffffff16815260200190815260200160002060005490806001815401808255809150506001900390600052602060002001600090919091909150558473ffffffffffffffffffffffffffffffffffffffff163373ffffffffffffffffffffffffffffffffffffffff166000547ffb8577c305f1cbe25cf638bcfb752fa10897cf75c38e6f3533e4272159dca6ad8787604051610627929190612115565b60405180910390a46000549150509392505050565b6106446113dc565b81600060016000838152602001908152602001600020600001540361069e576040517f08c379a000000000000000000000000000000000000000000000000000000000815260040161069590612191565b60405180910390fd5b6001600084815260200190815260200160002060405180610100016040529081600082015481526020016001820160009054906101000a900473ffffffffffffffffffffffffffffffffffffffff1673ffffffffffffffffffffffffffffffffffffffff1673ffffffffffffffffffffffffffffffffffffffff1681526020016002820160009054906101000a900473ffffffffffffffffffffffffffffffffffffffff1673ffffffffffffffffffffffffffffffffffffffff1673ffffffffffffffffffffffffffffffffffffffff1681526020016003820154815260200160048201805461078d90611e66565b80601f01602080910402602001604051908101604052809291908181526020018280546107b990611e66565b80156108065780601f106107db57610100808354040283529160200191610806565b820191906000526020600020905b8154815290600101906020018083116107e957829003601f168201915b505050505081526020016005820160009054906101000a900460ff16600281111561083457610833611811565b5b600281111561084657610845611811565b5b815260200160068201548152602001600782015481525050915050919050565b60606000600360008473ffffffffffffffffffffffffffffffffffffffff1673ffffffffffffffffffffffffffffffffffffffff1681526020019081526020016000208054806020026020016040519081016040528092919081815260200182805480156108f357602002820191906000526020600020905b8154815260200190600101908083116108df575b505050505090506000805b825181101561098c576000600281111561091b5761091a611811565b5b60016000858481518110610932576109316121b1565b5b6020026020010151815260200190815260200160002060050160009054906101000a900460ff16600281111561096b5761096a611811565b5b0361097f57818061097b90611def565b9250505b80806001019150506108fe565b5060008167ffffffffffffffff8111156109a9576109a861158c565b5b6040519080825280602002602001820160405280156109e257816020015b6109cf6113dc565b8152602001906001900390816109c75790505b5090506000805b8451811015610c6f5760006002811115610a0657610a05611811565b5b60016000878481518110610a1d57610a1c6121b1565b5b6020026020010151815260200190815260200160002060050160009054906101000a900460ff166002811115610a5657610a55611811565b5b03610c625760016000868381518110610a7257610a716121b1565b5b6020026020010151815260200190815260200160002060405180610100016040529081600082015481526020016001820160009054906101000a900473ffffffffffffffffffffffffffffffffffffffff1673ffffffffffffffffffffffffffffffffffffffff1673ffffffffffffffffffffffffffffffffffffffff1681526020016002820160009054906101000a900473ffffffffffffffffffffffffffffffffffffffff1673ffffffffffffffffffffffffffffffffffffffff1673ffffffffffffffffffffffffffffffffffffffff16815260200160038201548152602001600482018054610b6490611e66565b80601f0160208091040260200160405190810160405280929190818152602001828054610b9090611e66565b8015610bdd5780601f10610bb257610100808354040283529160200191610bdd565b820191906000526020600020905b815481529060010190602001808311610bc057829003601f168201915b505050505081526020016005820160009054906101000a900460ff166002811115610c0b57610c0a611811565b5b6002811115610c1d57610c1c611811565b5b815260200160068201548152602001600782015481525050838381518110610c4857610c476121b1565b5b60200260200101819052508180610c5e90611def565b9250505b80806001019150506109e9565b5081945050505050919050565b60008054905090565b806000600160008381526020019081526020016000206000015403610cdf576040517f08c379a0000000000000000000000000000000000000000000000000000000008152600401610cd690612191565b60405180910390fd5b813373ffffffffffffffffffffffffffffffffffffffff166001600083815260200190815260200160002060010160009054906101000a900473ffffffffffffffffffffffffffffffffffffffff1673ffffffffffffffffffffffffffffffffffffffff1614610d84576040517f08c379a0000000000000000000000000000000000000000000000000000000008152600401610d7b9061222c565b60405180910390fd5b8260006002811115610d9957610d98611811565b5b6001600083815260200190815260200160002060050160009054906101000a900460ff166002811115610dcf57610dce611811565b5b14610e0f576040517f08c379a0000000000000000000000000000000000000000000000000000000008152600401610e0690612298565b60405180910390fd5b60026001600086815260200190815260200160002060050160006101000a81548160ff02191690836002811115610e4957610e48611811565b5b0217905550837fb85e553db1cc947378f2f2d6071d3e64a20a8d3896fee3d15a5087372164e97c60405160405180910390a250505050565b60016020528060005260406000206000915090508060000154908060010160009054906101000a900473ffffffffffffffffffffffffffffffffffffffff16908060020160009054906101000a900473ffffffffffffffffffffffffffffffffffffffff1690806003015490806004018054610efc90611e66565b80601f0160208091040260200160405190810160405280929190818152602001828054610f2890611e66565b8015610f755780601f10610f4a57610100808354040283529160200191610f75565b820191906000526020600020905b815481529060010190602001808311610f5857829003601f168201915b5050505050908060050160009054906101000a900460ff16908060060154908060070154905088565b6060600260008373ffffffffffffffffffffffffffffffffffffffff1673ffffffffffffffffffffffffffffffffffffffff16815260200190815260200160002080548060200260200160405190810160405280929190818152602001828054801561102957602002820191906000526020600020905b815481526020019060010190808311611015575b50505050509050919050565b6002602052816000526040600020818154811061105157600080fd5b90600052602060002001600091509150505481565b8060006001600083815260200190815260200160002060000154036110c0576040517f08c379a00000000000000000000000000000000000000000000000000000000081526004016110b790612191565b60405180910390fd5b813373ffffffffffffffffffffffffffffffffffffffff166001600083815260200190815260200160002060020160009054906101000a900473ffffffffffffffffffffffffffffffffffffffff1673ffffffffffffffffffffffffffffffffffffffff1614611165576040517f08c379a000000000000000000000000000000000000000000000000000000000815260040161115c90612304565b60405180910390fd5b826000600281111561117a57611179611811565b5b6001600083815260200190815260200160002060050160009054906101000a900460ff1660028111156111b0576111af611811565b5b146111f0576040517f08c379a00000000000000000000000000000000000000000000000000000000081526004016111e790612298565b60405180910390fd5b60006001600086815260200190815260200160002090508060030154341461124d576040517f08c379a000000000000000000000000000000000000000000000000000000000815260040161124490612370565b60405180910390fd5b60018160050160006101000a81548160ff0219169083600281111561127557611274611811565b5b02179055504281600701819055508060010160009054906101000a900473ffffffffffffffffffffffffffffffffffffffff1673ffffffffffffffffffffffffffffffffffffffff166108fc349081150290604051600060405180830381858888f193505050501580156112ed573d6000803e3d6000fd5b503373ffffffffffffffffffffffffffffffffffffffff16857efdb165dace7a7a03b6cd0e33918c5e907b1c952fd687fa8e8553b4665010073442604051611336929190612390565b60405180910390a35050505050565b6060600360008373ffffffffffffffffffffffffffffffffffffffff1673ffffffffffffffffffffffffffffffffffffffff1681526020019081526020016000208054806020026020016040519081016040528092919081815260200182805480156113d057602002820191906000526020600020905b8154815260200190600101908083116113bc575b50505050509050919050565b60405180610100016040528060008152602001600073ffffffffffffffffffffffffffffffffffffffff168152602001600073ffffffffffffffffffffffffffffffffffffffff16815260200160008152602001606081526020016000600281111561144b5761144a611811565b5b815260200160008152602001600081525090565b6000604051905090565b600080fd5b600080fd5b600073ffffffffffffffffffffffffffffffffffffffff82169050919050565b600061149e82611473565b9050919050565b6114ae81611493565b81146114b957600080fd5b50565b6000813590506114cb816114a5565b92915050565b6000819050919050565b6114e4816114d1565b81146114ef57600080fd5b50565b600081359050611501816114db565b92915050565b6000806040838503121561151e5761151d611469565b5b600061152c858286016114bc565b925050602061153d858286016114f2565b9150509250929050565b611550816114d1565b82525050565b600060208201905061156b6000830184611547565b92915050565b600080fd5b600080fd5b6000601f19601f8301169050919050565b7f4e487b7100000000000000000000000000000000000000000000000000000000600052604160045260246000fd5b6115c48261157b565b810181811067ffffffffffffffff821117156115e3576115e261158c565b5b80604052505050565b60006115f661145f565b905061160282826115bb565b919050565b600067ffffffffffffffff8211156116225761162161158c565b5b61162b8261157b565b9050602081019050919050565b82818337600083830152505050565b600061165a61165584611607565b6115ec565b90508281526020810184848401111561167657611675611576565b5b611681848285611638565b509392505050565b600082601f83011261169e5761169d611571565b5b81356116ae848260208601611647565b91505092915050565b6000806000606084860312156116d0576116cf611469565b5b60006116de868287016114bc565b93505060206116ef868287016114f2565b925050604084013567ffffffffffffffff8111156117105761170f61146e565b5b61171c86828701611689565b9150509250925092565b60006020828403121561173c5761173b611469565b5b600061174a848285016114f2565b91505092915050565b61175c816114d1565b82525050565b600061176d82611473565b9050919050565b61177d81611762565b82525050565b61178c81611493565b82525050565b600081519050919050565b600082825260208201905092915050565b60005b838110156117cc5780820151818401526020810190506117b1565b60008484015250505050565b60006117e382611792565b6117ed818561179d565b93506117fd8185602086016117ae565b6118068161157b565b840191505092915050565b7f4e487b7100000000000000000000000000000000000000000000000000000000600052602160045260246000fd5b6003811061185157611850611811565b5b50565b600081905061186282611840565b919050565b600061187282611854565b9050919050565b61188281611867565b82525050565b6000610100830160008301516118a16000860182611753565b5060208301516118b46020860182611774565b5060408301516118c76040860182611783565b5060608301516118da6060860182611753565b50608083015184820360808601526118f282826117d8565b91505060a083015161190760a0860182611879565b5060c083015161191a60c0860182611753565b5060e083015161192d60e0860182611753565b508091505092915050565b600060208201905081810360008301526119528184611888565b905092915050565b6000602082840312156119705761196f611469565b5b600061197e848285016114bc565b91505092915050565b600081519050919050565b600082825260208201905092915050565b6000819050602082019050919050565b6000610100830160008301516119cc6000860182611753565b5060208301516119df6020860182611774565b5060408301516119f26040860182611783565b506060830151611a056060860182611753565b5060808301518482036080860152611a1d82826117d8565b91505060a0830151611a3260a0860182611879565b5060c0830151611a4560c0860182611753565b5060e0830151611a5860e0860182611753565b508091505092915050565b6000611a6f83836119b3565b905092915050565b6000602082019050919050565b6000611a8f82611987565b611a998185611992565b935083602082028501611aab856119a3565b8060005b85811015611ae75784840389528151611ac88582611a63565b9450611ad383611a77565b925060208a01995050600181019050611aaf565b50829750879550505050505092915050565b60006020820190508181036000830152611b138184611a84565b905092915050565b611b2481611762565b82525050565b611b3381611493565b82525050565b600082825260208201905092915050565b6000611b5582611792565b611b5f8185611b39565b9350611b6f8185602086016117ae565b611b788161157b565b840191505092915050565b611b8c81611867565b82525050565b600061010082019050611ba8600083018b611547565b611bb5602083018a611b1b565b611bc26040830189611b2a565b611bcf6060830188611547565b8181036080830152611be18187611b4a565b9050611bf060a0830186611b83565b611bfd60c0830185611547565b611c0a60e0830184611547565b9998505050505050505050565b600081519050919050565b600082825260208201905092915050565b6000819050602082019050919050565b6000611c4f8383611753565b60208301905092915050565b6000602082019050919050565b6000611c7382611c17565b611c7d8185611c22565b9350611c8883611c33565b8060005b83811015611cb9578151611ca08882611c43565b9750611cab83611c5b565b925050600181019050611c8c565b5085935050505092915050565b60006020820190508181036000830152611ce08184611c68565b905092915050565b7f496e76616c69642070617469656e742061646472657373000000000000000000600082015250565b6000611d1e601783611b39565b9150611d2982611ce8565b602082019050919050565b60006020820190508181036000830152611d4d81611d11565b9050919050565b7f416d6f756e74206d7573742062652067726561746572207468616e2030000000600082015250565b6000611d8a601d83611b39565b9150611d9582611d54565b602082019050919050565b60006020820190508181036000830152611db981611d7d565b9050919050565b7f4e487b7100000000000000000000000000000000000000000000000000000000600052601160045260246000fd5b6000611dfa826114d1565b91507fffffffffffffffffffffffffffffffffffffffffffffffffffffffffffffffff8203611e2c57611e2b611dc0565b5b600182019050919050565b7f4e487b7100000000000000000000000000000000000000000000000000000000600052602260045260246000fd5b60006002820490506001821680611e7e57607f821691505b602082108103611e9157611e90611e37565b5b50919050565b60008190508160005260206000209050919050565b60006020601f8301049050919050565b600082821b905092915050565b600060088302611ef97fffffffffffffffffffffffffffffffffffffffffffffffffffffffffffffffff82611ebc565b611f038683611ebc565b95508019841693508086168417925050509392505050565b6000819050919050565b6000611f40611f3b611f36846114d1565b611f1b565b6114d1565b9050919050565b6000819050919050565b611f5a83611f25565b611f6e611f6682611f47565b848454611ec9565b825550505050565b600090565b611f83611f76565b611f8e818484611f51565b505050565b5b81811015611fb257611fa7600082611f7b565b600181019050611f94565b5050565b601f821115611ff757611fc881611e97565b611fd184611eac565b81016020851015611fe0578190505b611ff4611fec85611eac565b830182611f93565b50505b505050565b600082821c905092915050565b600061201a60001984600802611ffc565b1980831691505092915050565b60006120338383612009565b9150826002028217905092915050565b61204c82611792565b67ffffffffffffffff8111156120655761206461158c565b5b61206f8254611e66565b61207a828285611fb6565b600060209050601f8311600181146120ad576000841561209b578287015190505b6120a58582612027565b86555061210d565b601f1984166120bb86611e97565b60005b828110156120e3578489015182556001820191506020850194506020810190506120be565b8683101561210057848901516120fc601f891682612009565b8355505b6001600288020188555050505b505050505050565b600060408201905061212a6000830185611547565b818103602083015261213c8184611b4a565b90509392505050565b7f5061796d656e7420646f6573206e6f7420657869737400000000000000000000600082015250565b600061217b601683611b39565b915061218682612145565b602082019050919050565b600060208201905081810360008301526121aa8161216e565b9050919050565b7f4e487b7100000000000000000000000000000000000000000000000000000000600052603260045260246000fd5b7f4f6e6c7920636c696e69632063616e2063616c6c207468697300000000000000600082015250565b6000612216601983611b39565b9150612221826121e0565b602082019050919050565b6000602082019050818103600083015261224581612209565b9050919050565b7f5061796d656e74206973206e6f742070656e64696e6700000000000000000000600082015250565b6000612282601683611b39565b915061228d8261224c565b602082019050919050565b600060208201905081810360008301526122b181612275565b9050919050565b7f4f6e6c792070617469656e742063616e2063616c6c2074686973000000000000600082015250565b60006122ee601a83611b39565b91506122f9826122b8565b602082019050919050565b6000602082019050818103600083015261231d816122e1565b9050919050565b7f496e636f7272656374207061796d656e7420616d6f756e740000000000000000600082015250565b600061235a601883611b39565b915061236582612324565b602082019050919050565b600060208201905081810360008301526123898161234d565b9050919050565b60006040820190506123a56000830185611547565b6123b26020830184611547565b939250505056fea2646970667358221220846c7d123984dd8614b9e1e20eee1029538f5aa02b62fb864c1e26de2f8989a764736f6c63430008180033",
  "linkReferences": {},
  "deployedLinkReferences": {}
}